{
  "_format": "hh-sol-artifact-1",
  "contractName": "Chess",
  "sourceName": "contracts/Chess.sol",
  "abi": [
    {
      "anonymous": false,
      "inputs": [
        {
          "indexed": false,
          "internalType": "address",
          "name": "sender",
          "type": "address"
        },
        {
          "indexed": false,
          "internalType": "uint256",
          "name": "gameId",
          "type": "uint256"
        },
        {
          "indexed": false,
          "internalType": "uint256",
          "name": "amountAdded",
          "type": "uint256"
        }
      ],
      "name": "MoneyAdded",
      "type": "event"
    },
    {
      "anonymous": false,
      "inputs": [
        {
          "indexed": false,
          "internalType": "uint256",
          "name": "gameId",
          "type": "uint256"
        },
        {
          "indexed": false,
          "internalType": "address",
          "name": "addr1",
          "type": "address"
        },
        {
          "indexed": false,
          "internalType": "uint256",
          "name": "bidAmount",
          "type": "uint256"
        }
      ],
      "name": "gameCreated",
      "type": "event"
    },
    {
      "inputs": [
        {
          "internalType": "string",
          "name": "_link",
          "type": "string"
        },
        {
          "internalType": "uint256",
          "name": "_bidAmount",
          "type": "uint256"
        },
        {
          "internalType": "bool",
          "name": "_playsWhite",
          "type": "bool"
        },
        {
          "internalType": "string",
          "name": "_name",
          "type": "string"
        }
      ],
      "name": "createGame",
      "outputs": [],
      "stateMutability": "payable",
      "type": "function"
    },
    {
      "inputs": [
        {
          "internalType": "string",
          "name": "_link",
          "type": "string"
        },
        {
          "internalType": "string",
          "name": "_winner",
          "type": "string"
        }
      ],
      "name": "endGame",
      "outputs": [],
      "stateMutability": "payable",
      "type": "function"
    },
    {
      "inputs": [
        {
          "internalType": "string",
          "name": "_link",
          "type": "string"
        }
      ],
      "name": "getBidAmountFromLink",
      "outputs": [
        {
          "internalType": "uint256",
          "name": "",
          "type": "uint256"
        }
      ],
      "stateMutability": "view",
      "type": "function"
    },
    {
      "inputs": [
        {
          "internalType": "string",
          "name": "_name",
          "type": "string"
        }
      ],
      "name": "getCurrentGameId",
      "outputs": [
        {
          "internalType": "uint256",
          "name": "gameId",
          "type": "uint256"
        }
      ],
      "stateMutability": "view",
      "type": "function"
    },
    {
      "inputs": [
        {
          "internalType": "uint256",
          "name": "_gameId",
          "type": "uint256"
        }
      ],
      "name": "getGame",
      "outputs": [
        {
          "components": [
            {
              "internalType": "uint256",
              "name": "gameId",
              "type": "uint256"
            },
            {
              "internalType": "uint8",
              "name": "gameResult",
              "type": "uint8"
            },
            {
              "internalType": "address",
              "name": "whitePlayer",
              "type": "address"
            },
            {
              "internalType": "address",
              "name": "blackPlayer",
              "type": "address"
            },
            {
              "internalType": "uint256",
              "name": "bidAmount",
              "type": "uint256"
            },
            {
              "internalType": "string",
              "name": "blackPlayerName",
              "type": "string"
            },
            {
              "internalType": "string",
              "name": "whitePlayerName",
              "type": "string"
            }
          ],
          "internalType": "struct Chess.Game",
          "name": "",
          "type": "tuple"
        }
      ],
      "stateMutability": "view",
      "type": "function"
    },
    {
      "inputs": [
        {
          "internalType": "address",
          "name": "_addr",
          "type": "address"
        },
        {
          "internalType": "string",
          "name": "_name",
          "type": "string"
        }
      ],
      "name": "isInGame",
      "outputs": [
        {
          "internalType": "bool",
          "name": "",
          "type": "bool"
        }
      ],
      "stateMutability": "view",
      "type": "function"
    },
    {
      "inputs": [
        {
          "internalType": "string",
          "name": "_link",
          "type": "string"
        },
        {
          "internalType": "string",
          "name": "_name",
          "type": "string"
        }
      ],
      "name": "joinGame",
      "outputs": [],
      "stateMutability": "payable",
      "type": "function"
    },
    {
      "inputs": [
        {
          "internalType": "string",
          "name": "_str1",
          "type": "string"
        },
        {
          "internalType": "string",
          "name": "_str2",
          "type": "string"
        }
      ],
      "name": "strComp",
      "outputs": [
        {
          "internalType": "bool",
          "name": "",
          "type": "bool"
        }
      ],
      "stateMutability": "pure",
      "type": "function"
    }
  ],
  "bytecode": "0x608060405234801561001057600080fd5b506124f8806100206000396000f3fe60806040526004361061007b5760003560e01c8063a2f77bcc1161004e578063a2f77bcc14610153578063bcb03c8114610190578063ca057534146101ac578063dbdef6f1146101e95761007b565b8063226813ac1461008057806350dee8a0146100bd57806359c8351f146100fa5780636005839014610137575b600080fd5b34801561008c57600080fd5b506100a760048036038101906100a29190611b8c565b610205565b6040516100b49190612132565b60405180910390f35b3480156100c957600080fd5b506100e460048036038101906100df9190611b8c565b6102b6565b6040516100f19190612132565b60405180910390f35b34801561010657600080fd5b50610121600480360381019061011c9190611bcd565b6106a0565b60405161012e9190612073565b60405180910390f35b610151600480360381019061014c9190611bcd565b6106f9565b005b34801561015f57600080fd5b5061017a60048036038101906101759190611ccc565b610d1a565b6040516101879190612110565b60405180910390f35b6101aa60048036038101906101a59190611c39565b610f7d565b005b3480156101b857600080fd5b506101d360048036038101906101ce9190611b38565b6111f4565b6040516101e09190612073565b60405180910390f35b61020360048036038101906101fe9190611bcd565b6115a3565b005b60006102456040518060400160405280600a81526020017f52756e6e696e672e2e2e000000000000000000000000000000000000000000008152506118c0565b60006002836040516102579190611ffb565b9081526020016040518091039020548154811061029d577f4e487b7100000000000000000000000000000000000000000000000000000000600052603260045260246000fd5b9060005260206000209060060201600301549050919050565b600080600090505b60008054905081101561065857600360008281548110610307577f4e487b7100000000000000000000000000000000000000000000000000000000600052603260045260246000fd5b906000526020600020906006020160010160009054906101000a900460ff1660ff1614801561063757503373ffffffffffffffffffffffffffffffffffffffff1660008281548110610382577f4e487b7100000000000000000000000000000000000000000000000000000000600052603260045260246000fd5b906000526020600020906006020160010160019054906101000a900473ffffffffffffffffffffffffffffffffffffffff1673ffffffffffffffffffffffffffffffffffffffff161480156104b057506104af6000828154811061040f577f4e487b7100000000000000000000000000000000000000000000000000000000600052603260045260246000fd5b9060005260206000209060060201600501805461042b90612364565b80601f016020809104026020016040519081016040528092919081815260200182805461045790612364565b80156104a45780601f10610479576101008083540402835291602001916104a4565b820191906000526020600020905b81548152906001019060200180831161048757829003601f168201915b5050505050846106a0565b5b8061063657503373ffffffffffffffffffffffffffffffffffffffff1660008281548110610507577f4e487b7100000000000000000000000000000000000000000000000000000000600052603260045260246000fd5b906000526020600020906006020160020160009054906101000a900473ffffffffffffffffffffffffffffffffffffffff1673ffffffffffffffffffffffffffffffffffffffff16148015610635575061063460008281548110610594577f4e487b7100000000000000000000000000000000000000000000000000000000600052603260045260246000fd5b906000526020600020906006020160040180546105b090612364565b80601f01602080910402602001604051908101604052809291908181526020018280546105dc90612364565b80156106295780601f106105fe57610100808354040283529160200191610629565b820191906000526020600020905b81548152906001019060200180831161060c57829003601f168201915b5050505050846106a0565b5b5b5b15610645578091505061069b565b808061065090612396565b9150506102be565b50600061069a576040517f08c379a0000000000000000000000000000000000000000000000000000000008152600401610691906120d0565b60405180910390fd5b5b919050565b6000816040516020016106b39190611ffb565b60405160208183030381529060405280519060200120836040516020016106da9190611ffb565b6040516020818303038152906040528051906020012014905092915050565b600060028360405161070b9190611ffb565b9081526020016040518091039020549050600060405160200161072d90612027565b60405160208183030381529060405280519060200120836040516020016107549190611ffb565b6040516020818303038152906040528051906020012014156108e55760008083815481106107ab577f4e487b7100000000000000000000000000000000000000000000000000000000600052603260045260246000fd5b906000526020600020906006020160010160006101000a81548160ff021916908360ff1602179055506000828154811061080e577f4e487b7100000000000000000000000000000000000000000000000000000000600052603260045260246000fd5b906000526020600020906006020160010160019054906101000a900473ffffffffffffffffffffffffffffffffffffffff1690508073ffffffffffffffffffffffffffffffffffffffff166108fc60008481548110610896577f4e487b7100000000000000000000000000000000000000000000000000000000600052603260045260246000fd5b90600052602060002090600602016003015460026108b49190612273565b9081150290604051600060405180830381858888f193505050501580156108df573d6000803e3d6000fd5b50610d14565b6040516020016108f490612012565b604051602081830303815290604052805190602001208360405160200161091b9190611ffb565b604051602081830303815290604052805190602001201415610aad57600160008381548110610973577f4e487b7100000000000000000000000000000000000000000000000000000000600052603260045260246000fd5b906000526020600020906006020160010160006101000a81548160ff021916908360ff160217905550600082815481106109d6577f4e487b7100000000000000000000000000000000000000000000000000000000600052603260045260246000fd5b906000526020600020906006020160020160009054906101000a900473ffffffffffffffffffffffffffffffffffffffff1690508073ffffffffffffffffffffffffffffffffffffffff166108fc60008481548110610a5e577f4e487b7100000000000000000000000000000000000000000000000000000000600052603260045260246000fd5b9060005260206000209060060201600301546002610a7c9190612273565b9081150290604051600060405180830381858888f19350505050158015610aa7573d6000803e3d6000fd5b50610d13565b600260008381548110610ae9577f4e487b7100000000000000000000000000000000000000000000000000000000600052603260045260246000fd5b906000526020600020906006020160010160006101000a81548160ff021916908360ff16021790555060008281548110610b4c577f4e487b7100000000000000000000000000000000000000000000000000000000600052603260045260246000fd5b906000526020600020906006020160010160019054906101000a900473ffffffffffffffffffffffffffffffffffffffff1690508073ffffffffffffffffffffffffffffffffffffffff166108fc60008481548110610bd4577f4e487b7100000000000000000000000000000000000000000000000000000000600052603260045260246000fd5b9060005260206000209060060201600301549081150290604051600060405180830381858888f19350505050158015610c11573d6000803e3d6000fd5b5060008281548110610c4c577f4e487b7100000000000000000000000000000000000000000000000000000000600052603260045260246000fd5b906000526020600020906006020160020160009054906101000a900473ffffffffffffffffffffffffffffffffffffffff1690508073ffffffffffffffffffffffffffffffffffffffff166108fc60008481548110610cd4577f4e487b7100000000000000000000000000000000000000000000000000000000600052603260045260246000fd5b9060005260206000209060060201600301549081150290604051600060405180830381858888f19350505050158015610d11573d6000803e3d6000fd5b505b5b50505050565b610d22611982565b60008281548110610d5c577f4e487b7100000000000000000000000000000000000000000000000000000000600052603260045260246000fd5b90600052602060002090600602016040518060e0016040529081600082015481526020016001820160009054906101000a900460ff1660ff1660ff1681526020016001820160019054906101000a900473ffffffffffffffffffffffffffffffffffffffff1673ffffffffffffffffffffffffffffffffffffffff1673ffffffffffffffffffffffffffffffffffffffff1681526020016002820160009054906101000a900473ffffffffffffffffffffffffffffffffffffffff1673ffffffffffffffffffffffffffffffffffffffff1673ffffffffffffffffffffffffffffffffffffffff16815260200160038201548152602001600482018054610e6290612364565b80601f0160208091040260200160405190810160405280929190818152602001828054610e8e90612364565b8015610edb5780601f10610eb057610100808354040283529160200191610edb565b820191906000526020600020905b815481529060010190602001808311610ebe57829003601f168201915b50505050508152602001600582018054610ef490612364565b80601f0160208091040260200160405190810160405280929190818152602001828054610f2090612364565b8015610f6d5780601f10610f4257610100808354040283529160200191610f6d565b820191906000526020600020905b815481529060010190602001808311610f5057829003601f168201915b5050505050815250509050919050565b610f8733826111f4565b15610fc7576040517f08c379a0000000000000000000000000000000000000000000000000000000008152600401610fbe906120b0565b60405180910390fd5b823414611009576040517f08c379a0000000000000000000000000000000000000000000000000000000008152600401611000906120f0565b60405180910390fd5b600080805490509050806002866040516110239190611ffb565b908152602001604051809103902081905550600080600181600181540180825580915050039060005260206000209060060201905081816000018190555060038160010160006101000a81548160ff021916908360ff16021790555084816003018190555083156110ef57338160010160016101000a81548173ffffffffffffffffffffffffffffffffffffffff021916908373ffffffffffffffffffffffffffffffffffffffff160217905550828160050190805190602001906110e99291906119ee565b5061114c565b338160020160006101000a81548173ffffffffffffffffffffffffffffffffffffffff021916908373ffffffffffffffffffffffffffffffffffffffff1602179055508281600401908051906020019061114a9291906119ee565b505b7feb9636322c1d272bc67c0a5514c23440570a8938048a82c4dc2e366a7c2e924c82338760405161117f9392919061214d565b60405180910390a1346001600084815260200190815260200160002060008282546111aa919061221d565b925050819055507f245dbab919301df1f608bde366fd9183c127bb555fd0f90841f4f1cdd2e540e93383346040516111e49392919061203c565b60405180910390a1505050505050565b600080600090505b60008054905081101561159757600360008281548110611245577f4e487b7100000000000000000000000000000000000000000000000000000000600052603260045260246000fd5b906000526020600020906006020160010160009054906101000a900460ff1660ff1614801561157557508373ffffffffffffffffffffffffffffffffffffffff16600082815481106112c0577f4e487b7100000000000000000000000000000000000000000000000000000000600052603260045260246000fd5b906000526020600020906006020160010160019054906101000a900473ffffffffffffffffffffffffffffffffffffffff1673ffffffffffffffffffffffffffffffffffffffff161480156113ee57506113ed6000828154811061134d577f4e487b7100000000000000000000000000000000000000000000000000000000600052603260045260246000fd5b9060005260206000209060060201600501805461136990612364565b80601f016020809104026020016040519081016040528092919081815260200182805461139590612364565b80156113e25780601f106113b7576101008083540402835291602001916113e2565b820191906000526020600020905b8154815290600101906020018083116113c557829003601f168201915b5050505050846106a0565b5b8061157457508373ffffffffffffffffffffffffffffffffffffffff1660008281548110611445577f4e487b7100000000000000000000000000000000000000000000000000000000600052603260045260246000fd5b906000526020600020906006020160020160009054906101000a900473ffffffffffffffffffffffffffffffffffffffff1673ffffffffffffffffffffffffffffffffffffffff161480156115735750611572600082815481106114d2577f4e487b7100000000000000000000000000000000000000000000000000000000600052603260045260246000fd5b906000526020600020906006020160040180546114ee90612364565b80601f016020809104026020016040519081016040528092919081815260200182805461151a90612364565b80156115675780601f1061153c57610100808354040283529160200191611567565b820191906000526020600020905b81548152906001019060200180831161154a57829003601f168201915b5050505050846106a0565b5b5b5b1561158457600191505061159d565b808061158f90612396565b9150506111fc565b50600090505b92915050565b6115ad33826111f4565b156115ed576040517f08c379a00000000000000000000000000000000000000000000000000000000081526004016115e4906120b0565b60405180910390fd5b60006002836040516115ff9190611ffb565b90815260200160405180910390205490506000818154811061164a577f4e487b7100000000000000000000000000000000000000000000000000000000600052603260045260246000fd5b906000526020600020906006020160030154341461169d576040517f08c379a0000000000000000000000000000000000000000000000000000000008152600401611694906120f0565b60405180910390fd5b346001600083815260200190815260200160002060008282546116c0919061221d565b92505081905550600073ffffffffffffffffffffffffffffffffffffffff1660008281548110611719577f4e487b7100000000000000000000000000000000000000000000000000000000600052603260045260246000fd5b906000526020600020906006020160010160019054906101000a900473ffffffffffffffffffffffffffffffffffffffff1673ffffffffffffffffffffffffffffffffffffffff16146117f55733600082815481106117a1577f4e487b7100000000000000000000000000000000000000000000000000000000600052603260045260246000fd5b906000526020600020906006020160020160006101000a81548173ffffffffffffffffffffffffffffffffffffffff021916908373ffffffffffffffffffffffffffffffffffffffff160217905550611880565b3360008281548110611830577f4e487b7100000000000000000000000000000000000000000000000000000000600052603260045260246000fd5b906000526020600020906006020160010160016101000a81548173ffffffffffffffffffffffffffffffffffffffff021916908373ffffffffffffffffffffffffffffffffffffffff1602179055505b7f245dbab919301df1f608bde366fd9183c127bb555fd0f90841f4f1cdd2e540e93382346040516118b39392919061203c565b60405180910390a1505050565b611956816040516024016118d4919061208e565b6040516020818303038152906040527f41304fac000000000000000000000000000000000000000000000000000000007bffffffffffffffffffffffffffffffffffffffffffffffffffffffff19166020820180517bffffffffffffffffffffffffffffffffffffffffffffffffffffffff8381831617835250505050611959565b50565b60008151905060006a636f6e736f6c652e6c6f679050602083016000808483855afa5050505050565b6040518060e0016040528060008152602001600060ff168152602001600073ffffffffffffffffffffffffffffffffffffffff168152602001600073ffffffffffffffffffffffffffffffffffffffff1681526020016000815260200160608152602001606081525090565b8280546119fa90612364565b90600052602060002090601f016020900481019282611a1c5760008555611a63565b82601f10611a3557805160ff1916838001178555611a63565b82800160010185558215611a63579182015b82811115611a62578251825591602001919060010190611a47565b5b509050611a709190611a74565b5090565b5b80821115611a8d576000816000905550600101611a75565b5090565b6000611aa4611a9f846121b5565b612184565b905082815260208101848484011115611abc57600080fd5b611ac7848285612322565b509392505050565b600081359050611ade8161247d565b92915050565b600081359050611af381612494565b92915050565b600082601f830112611b0a57600080fd5b8135611b1a848260208601611a91565b91505092915050565b600081359050611b32816124ab565b92915050565b60008060408385031215611b4b57600080fd5b6000611b5985828601611acf565b925050602083013567ffffffffffffffff811115611b7657600080fd5b611b8285828601611af9565b9150509250929050565b600060208284031215611b9e57600080fd5b600082013567ffffffffffffffff811115611bb857600080fd5b611bc484828501611af9565b91505092915050565b60008060408385031215611be057600080fd5b600083013567ffffffffffffffff811115611bfa57600080fd5b611c0685828601611af9565b925050602083013567ffffffffffffffff811115611c2357600080fd5b611c2f85828601611af9565b9150509250929050565b60008060008060808587031215611c4f57600080fd5b600085013567ffffffffffffffff811115611c6957600080fd5b611c7587828801611af9565b9450506020611c8687828801611b23565b9350506040611c9787828801611ae4565b925050606085013567ffffffffffffffff811115611cb457600080fd5b611cc087828801611af9565b91505092959194509250565b600060208284031215611cde57600080fd5b6000611cec84828501611b23565b91505092915050565b611cfe816122cd565b82525050565b611d0d816122cd565b82525050565b611d1c816122df565b82525050565b6000611d2d826121e5565b611d3781856121f0565b9350611d47818560208601612331565b611d508161246c565b840191505092915050565b6000611d66826121e5565b611d708185612201565b9350611d80818560208601612331565b611d898161246c565b840191505092915050565b6000611d9f826121e5565b611da98185612212565b9350611db9818560208601612331565b80840191505092915050565b6000611dd2601183612201565b91507f416c726561647920696e20612047616d650000000000000000000000000000006000830152602082019050919050565b6000611e12601c83612201565b91507f596f75722067616d65206973206e6f7420696e2070726f6772657373000000006000830152602082019050919050565b6000611e52600583612212565b91507f426c61636b0000000000000000000000000000000000000000000000000000006000830152600582019050919050565b6000611e92603083612201565b91507f5472616e7366657272656420616d6f756e74206973206e6f742073616d65206160008301527f73207468652062696420616d6f756e74000000000000000000000000000000006020830152604082019050919050565b6000611ef8600583612212565b91507f57686974650000000000000000000000000000000000000000000000000000006000830152600582019050919050565b600060e083016000830151611f436000860182611fce565b506020830151611f566020860182611fec565b506040830151611f696040860182611cf5565b506060830151611f7c6060860182611cf5565b506080830151611f8f6080860182611fce565b5060a083015184820360a0860152611fa78282611d22565b91505060c083015184820360c0860152611fc18282611d22565b9150508091505092915050565b611fd78161230b565b82525050565b611fe68161230b565b82525050565b611ff581612315565b82525050565b60006120078284611d94565b915081905092915050565b600061201d82611e45565b9150819050919050565b600061203282611eeb565b9150819050919050565b60006060820190506120516000830186611d04565b61205e6020830185611fdd565b61206b6040830184611fdd565b949350505050565b60006020820190506120886000830184611d13565b92915050565b600060208201905081810360008301526120a88184611d5b565b905092915050565b600060208201905081810360008301526120c981611dc5565b9050919050565b600060208201905081810360008301526120e981611e05565b9050919050565b6000602082019050818103600083015261210981611e85565b9050919050565b6000602082019050818103600083015261212a8184611f2b565b905092915050565b60006020820190506121476000830184611fdd565b92915050565b60006060820190506121626000830186611fdd565b61216f6020830185611d04565b61217c6040830184611fdd565b949350505050565b6000604051905081810181811067ffffffffffffffff821117156121ab576121aa61243d565b5b8060405250919050565b600067ffffffffffffffff8211156121d0576121cf61243d565b5b601f19601f8301169050602081019050919050565b600081519050919050565b600082825260208201905092915050565b600082825260208201905092915050565b600081905092915050565b60006122288261230b565b91506122338361230b565b9250827fffffffffffffffffffffffffffffffffffffffffffffffffffffffffffffffff03821115612268576122676123df565b5b828201905092915050565b600061227e8261230b565b91506122898361230b565b9250817fffffffffffffffffffffffffffffffffffffffffffffffffffffffffffffffff04831182151516156122c2576122c16123df565b5b828202905092915050565b60006122d8826122eb565b9050919050565b60008115159050919050565b600073ffffffffffffffffffffffffffffffffffffffff82169050919050565b6000819050919050565b600060ff82169050919050565b82818337600083830152505050565b60005b8381101561234f578082015181840152602081019050612334565b8381111561235e576000848401525b50505050565b6000600282049050600182168061237c57607f821691505b602082108114156123905761238f61240e565b5b50919050565b60006123a18261230b565b91507fffffffffffffffffffffffffffffffffffffffffffffffffffffffffffffffff8214156123d4576123d36123df565b5b600182019050919050565b7f4e487b7100000000000000000000000000000000000000000000000000000000600052601160045260246000fd5b7f4e487b7100000000000000000000000000000000000000000000000000000000600052602260045260246000fd5b7f4e487b7100000000000000000000000000000000000000000000000000000000600052604160045260246000fd5b6000601f19601f8301169050919050565b612486816122cd565b811461249157600080fd5b50565b61249d816122df565b81146124a857600080fd5b50565b6124b48161230b565b81146124bf57600080fd5b5056fea2646970667358221220694a8c578617ac55e7d140ca8ba4e182e1c6c6de6344847af59c52333ad26a2864736f6c63430008000033",
  "linkReferences": {},
  "deployedLinkReferences": {}
}