{
  "_format": "hh-sol-artifact-1",
  "contractName": "Chess",
  "sourceName": "contracts/Chess.sol",
  "abi": [
    {
      "anonymous": false,
      "inputs": [
        {
          "indexed": false,
          "internalType": "address",
          "name": "sender",
          "type": "address"
        },
        {
          "indexed": false,
          "internalType": "uint256",
          "name": "gameId",
          "type": "uint256"
        },
        {
          "indexed": false,
          "internalType": "uint256",
          "name": "amountAdded",
          "type": "uint256"
        }
      ],
      "name": "MoneyAdded",
      "type": "event"
    },
    {
      "anonymous": false,
      "inputs": [
        {
          "indexed": false,
          "internalType": "uint256",
          "name": "gameId",
          "type": "uint256"
        },
        {
          "indexed": false,
          "internalType": "address",
          "name": "addr1",
          "type": "address"
        },
        {
          "indexed": false,
          "internalType": "uint256",
          "name": "bidAmount",
          "type": "uint256"
        }
      ],
      "name": "gameCreated",
      "type": "event"
    },
    {
      "inputs": [
        {
          "internalType": "string",
          "name": "_link",
          "type": "string"
        },
        {
          "internalType": "uint256",
          "name": "_bidAmount",
          "type": "uint256"
        },
        {
          "internalType": "bool",
          "name": "_playsWhite",
          "type": "bool"
        }
      ],
      "name": "createGame",
      "outputs": [],
      "stateMutability": "payable",
      "type": "function"
    },
    {
      "inputs": [
        {
          "internalType": "string",
          "name": "_link",
          "type": "string"
        },
        {
          "internalType": "string",
          "name": "_winner",
          "type": "string"
        }
      ],
      "name": "endGame",
      "outputs": [],
      "stateMutability": "payable",
      "type": "function"
    },
    {
      "inputs": [
        {
          "internalType": "string",
          "name": "_link",
          "type": "string"
        }
      ],
      "name": "getBidAmountFromLink",
      "outputs": [
        {
          "internalType": "uint256",
          "name": "",
          "type": "uint256"
        }
      ],
      "stateMutability": "view",
      "type": "function"
    },
    {
      "inputs": [],
      "name": "getCurrentGameId",
      "outputs": [
        {
          "internalType": "uint256",
          "name": "gameId",
          "type": "uint256"
        }
      ],
      "stateMutability": "view",
      "type": "function"
    },
    {
      "inputs": [
        {
          "internalType": "uint256",
          "name": "_gameId",
          "type": "uint256"
        }
      ],
      "name": "getGame",
      "outputs": [
        {
          "components": [
            {
              "internalType": "uint256",
              "name": "gameId",
              "type": "uint256"
            },
            {
              "internalType": "uint8",
              "name": "gameResult",
              "type": "uint8"
            },
            {
              "internalType": "address",
              "name": "whitePlayer",
              "type": "address"
            },
            {
              "internalType": "address",
              "name": "blackPlayer",
              "type": "address"
            },
            {
              "internalType": "uint256",
              "name": "bidAmount",
              "type": "uint256"
            }
          ],
          "internalType": "struct Chess.Game",
          "name": "",
          "type": "tuple"
        }
      ],
      "stateMutability": "view",
      "type": "function"
    },
    {
      "inputs": [
        {
          "internalType": "address",
          "name": "_addr",
          "type": "address"
        }
      ],
      "name": "isInGame",
      "outputs": [
        {
          "internalType": "bool",
          "name": "",
          "type": "bool"
        }
      ],
      "stateMutability": "view",
      "type": "function"
    },
    {
      "inputs": [
        {
          "internalType": "string",
          "name": "_link",
          "type": "string"
        }
      ],
      "name": "joinGame",
      "outputs": [],
      "stateMutability": "payable",
      "type": "function"
    }
  ],
  "bytecode": "0x608060405234801561001057600080fd5b50611bf2806100206000396000f3fe6080604052600436106100705760003560e01c8063600583901161004e57806360058390146100ea57806376e033c714610106578063a263540114610143578063a2f77bcc1461016e57610070565b8063226813ac146100755780633d536a2e146100b257806343dbf0ef146100ce575b600080fd5b34801561008157600080fd5b5061009c6004803603810190610097919061140b565b6101ab565b6040516100a991906118af565b60405180910390f35b6100cc60048036038101906100c7919061140b565b61021d565b005b6100e860048036038101906100e391906114b8565b610538565b005b61010460048036038101906100ff919061144c565b61077b565b005b34801561011257600080fd5b5061012d600480360381019061012891906113e2565b610d9c565b60405161013a9190611819565b60405180910390f35b34801561014f57600080fd5b50610158610f80565b60405161016591906118af565b60405180910390f35b34801561017a57600080fd5b506101956004803603810190610190919061151f565b61119e565b6040516101a29190611894565b60405180910390f35b6000806002836040516101be91906117a1565b90815260200160405180910390205481548110610204577f4e487b7100000000000000000000000000000000000000000000000000000000600052603260045260246000fd5b9060005260206000209060040201600301549050919050565b61022633610d9c565b15610266576040517f08c379a000000000000000000000000000000000000000000000000000000000815260040161025d90611834565b60405180910390fd5b600060028260405161027891906117a1565b9081526020016040518091039020549050600081815481106102c3577f4e487b7100000000000000000000000000000000000000000000000000000000600052603260045260246000fd5b9060005260206000209060040201600301543414610316576040517f08c379a000000000000000000000000000000000000000000000000000000000815260040161030d90611874565b60405180910390fd5b346001600083815260200190815260200160002060008282546103399190611989565b92505081905550600073ffffffffffffffffffffffffffffffffffffffff1660008281548110610392577f4e487b7100000000000000000000000000000000000000000000000000000000600052603260045260246000fd5b906000526020600020906004020160010160019054906101000a900473ffffffffffffffffffffffffffffffffffffffff1673ffffffffffffffffffffffffffffffffffffffff161461046e57336000828154811061041a577f4e487b7100000000000000000000000000000000000000000000000000000000600052603260045260246000fd5b906000526020600020906004020160020160006101000a81548173ffffffffffffffffffffffffffffffffffffffff021916908373ffffffffffffffffffffffffffffffffffffffff1602179055506104f9565b33600082815481106104a9577f4e487b7100000000000000000000000000000000000000000000000000000000600052603260045260246000fd5b906000526020600020906004020160010160016101000a81548173ffffffffffffffffffffffffffffffffffffffff021916908373ffffffffffffffffffffffffffffffffffffffff1602179055505b7f245dbab919301df1f608bde366fd9183c127bb555fd0f90841f4f1cdd2e540e933823460405161052c939291906117e2565b60405180910390a15050565b61054133610d9c565b15610581576040517f08c379a000000000000000000000000000000000000000000000000000000000815260040161057890611834565b60405180910390fd5b8134146105c3576040517f08c379a00000000000000000000000000000000000000000000000000000000081526004016105ba90611874565b60405180910390fd5b600080805490509050806002856040516105dd91906117a1565b908152602001604051809103902081905550600080600181600181540180825580915050039060005260206000209060040201905081816000018190555060038160010160006101000a81548160ff021916908360ff160217905550838160030181905550821561069057338160010160016101000a81548173ffffffffffffffffffffffffffffffffffffffff021916908373ffffffffffffffffffffffffffffffffffffffff1602179055506106d4565b338160020160006101000a81548173ffffffffffffffffffffffffffffffffffffffff021916908373ffffffffffffffffffffffffffffffffffffffff1602179055505b7feb9636322c1d272bc67c0a5514c23440570a8938048a82c4dc2e366a7c2e924c823386604051610707939291906118ca565b60405180910390a1346001600084815260200190815260200160002060008282546107329190611989565b925050819055507f245dbab919301df1f608bde366fd9183c127bb555fd0f90841f4f1cdd2e540e933833460405161076c939291906117e2565b60405180910390a15050505050565b600060028360405161078d91906117a1565b908152602001604051809103902054905060006040516020016107af906117cd565b60405160208183030381529060405280519060200120836040516020016107d691906117a1565b60405160208183030381529060405280519060200120141561096757600080838154811061082d577f4e487b7100000000000000000000000000000000000000000000000000000000600052603260045260246000fd5b906000526020600020906004020160010160006101000a81548160ff021916908360ff16021790555060008281548110610890577f4e487b7100000000000000000000000000000000000000000000000000000000600052603260045260246000fd5b906000526020600020906004020160010160019054906101000a900473ffffffffffffffffffffffffffffffffffffffff1690508073ffffffffffffffffffffffffffffffffffffffff166108fc60008481548110610918577f4e487b7100000000000000000000000000000000000000000000000000000000600052603260045260246000fd5b906000526020600020906004020160030154600261093691906119df565b9081150290604051600060405180830381858888f19350505050158015610961573d6000803e3d6000fd5b50610d96565b604051602001610976906117b8565b604051602081830303815290604052805190602001208360405160200161099d91906117a1565b604051602081830303815290604052805190602001201415610b2f576001600083815481106109f5577f4e487b7100000000000000000000000000000000000000000000000000000000600052603260045260246000fd5b906000526020600020906004020160010160006101000a81548160ff021916908360ff16021790555060008281548110610a58577f4e487b7100000000000000000000000000000000000000000000000000000000600052603260045260246000fd5b906000526020600020906004020160020160009054906101000a900473ffffffffffffffffffffffffffffffffffffffff1690508073ffffffffffffffffffffffffffffffffffffffff166108fc60008481548110610ae0577f4e487b7100000000000000000000000000000000000000000000000000000000600052603260045260246000fd5b9060005260206000209060040201600301546002610afe91906119df565b9081150290604051600060405180830381858888f19350505050158015610b29573d6000803e3d6000fd5b50610d95565b600260008381548110610b6b577f4e487b7100000000000000000000000000000000000000000000000000000000600052603260045260246000fd5b906000526020600020906004020160010160006101000a81548160ff021916908360ff16021790555060008281548110610bce577f4e487b7100000000000000000000000000000000000000000000000000000000600052603260045260246000fd5b906000526020600020906004020160010160019054906101000a900473ffffffffffffffffffffffffffffffffffffffff1690508073ffffffffffffffffffffffffffffffffffffffff166108fc60008481548110610c56577f4e487b7100000000000000000000000000000000000000000000000000000000600052603260045260246000fd5b9060005260206000209060040201600301549081150290604051600060405180830381858888f19350505050158015610c93573d6000803e3d6000fd5b5060008281548110610cce577f4e487b7100000000000000000000000000000000000000000000000000000000600052603260045260246000fd5b906000526020600020906004020160020160009054906101000a900473ffffffffffffffffffffffffffffffffffffffff1690508073ffffffffffffffffffffffffffffffffffffffff166108fc60008481548110610d56577f4e487b7100000000000000000000000000000000000000000000000000000000600052603260045260246000fd5b9060005260206000209060040201600301549081150290604051600060405180830381858888f19350505050158015610d93573d6000803e3d6000fd5b505b5b50505050565b600080600090505b600080549050811015610f7557600360008281548110610ded577f4e487b7100000000000000000000000000000000000000000000000000000000600052603260045260246000fd5b906000526020600020906004020160010160009054906101000a900460ff1660ff16148015610f5357508273ffffffffffffffffffffffffffffffffffffffff1660008281548110610e68577f4e487b7100000000000000000000000000000000000000000000000000000000600052603260045260246000fd5b906000526020600020906004020160010160019054906101000a900473ffffffffffffffffffffffffffffffffffffffff1673ffffffffffffffffffffffffffffffffffffffff161480610f5257508273ffffffffffffffffffffffffffffffffffffffff1660008281548110610f08577f4e487b7100000000000000000000000000000000000000000000000000000000600052603260045260246000fd5b906000526020600020906004020160020160009054906101000a900473ffffffffffffffffffffffffffffffffffffffff1673ffffffffffffffffffffffffffffffffffffffff16145b5b15610f62576001915050610f7b565b8080610f6d90611ad0565b915050610da4565b50600090505b919050565b600080600090505b60008054905081101561115857600360008281548110610fd1577f4e487b7100000000000000000000000000000000000000000000000000000000600052603260045260246000fd5b906000526020600020906004020160010160009054906101000a900460ff1660ff1614801561113757503373ffffffffffffffffffffffffffffffffffffffff166000828154811061104c577f4e487b7100000000000000000000000000000000000000000000000000000000600052603260045260246000fd5b906000526020600020906004020160010160019054906101000a900473ffffffffffffffffffffffffffffffffffffffff1673ffffffffffffffffffffffffffffffffffffffff16148061113657503373ffffffffffffffffffffffffffffffffffffffff16600082815481106110ec577f4e487b7100000000000000000000000000000000000000000000000000000000600052603260045260246000fd5b906000526020600020906004020160020160009054906101000a900473ffffffffffffffffffffffffffffffffffffffff1673ffffffffffffffffffffffffffffffffffffffff16145b5b15611145578091505061119b565b808061115090611ad0565b915050610f88565b50600061119a576040517f08c379a000000000000000000000000000000000000000000000000000000000815260040161119190611854565b60405180910390fd5b5b90565b6111a66112dd565b600082815481106111e0577f4e487b7100000000000000000000000000000000000000000000000000000000600052603260045260246000fd5b90600052602060002090600402016040518060a0016040529081600082015481526020016001820160009054906101000a900460ff1660ff1660ff1681526020016001820160019054906101000a900473ffffffffffffffffffffffffffffffffffffffff1673ffffffffffffffffffffffffffffffffffffffff1673ffffffffffffffffffffffffffffffffffffffff1681526020016002820160009054906101000a900473ffffffffffffffffffffffffffffffffffffffff1673ffffffffffffffffffffffffffffffffffffffff1673ffffffffffffffffffffffffffffffffffffffff1681526020016003820154815250509050919050565b6040518060a0016040528060008152602001600060ff168152602001600073ffffffffffffffffffffffffffffffffffffffff168152602001600073ffffffffffffffffffffffffffffffffffffffff168152602001600081525090565b600061134e61134984611932565b611901565b90508281526020810184848401111561136657600080fd5b611371848285611a8e565b509392505050565b60008135905061138881611b77565b92915050565b60008135905061139d81611b8e565b92915050565b600082601f8301126113b457600080fd5b81356113c484826020860161133b565b91505092915050565b6000813590506113dc81611ba5565b92915050565b6000602082840312156113f457600080fd5b600061140284828501611379565b91505092915050565b60006020828403121561141d57600080fd5b600082013567ffffffffffffffff81111561143757600080fd5b611443848285016113a3565b91505092915050565b6000806040838503121561145f57600080fd5b600083013567ffffffffffffffff81111561147957600080fd5b611485858286016113a3565b925050602083013567ffffffffffffffff8111156114a257600080fd5b6114ae858286016113a3565b9150509250929050565b6000806000606084860312156114cd57600080fd5b600084013567ffffffffffffffff8111156114e757600080fd5b6114f3868287016113a3565b9350506020611504868287016113cd565b92505060406115158682870161138e565b9150509250925092565b60006020828403121561153157600080fd5b600061153f848285016113cd565b91505092915050565b61155181611a39565b82525050565b61156081611a39565b82525050565b61156f81611a4b565b82525050565b600061158082611962565b61158a818561197e565b935061159a818560208601611a9d565b80840191505092915050565b60006115b360118361196d565b91507f416c726561647920696e20612047616d650000000000000000000000000000006000830152602082019050919050565b60006115f3601c8361196d565b91507f596f75722067616d65206973206e6f7420696e2070726f6772657373000000006000830152602082019050919050565b600061163360058361197e565b91507f426c61636b0000000000000000000000000000000000000000000000000000006000830152600582019050919050565b600061167360308361196d565b91507f5472616e7366657272656420616d6f756e74206973206e6f742073616d65206160008301527f73207468652062696420616d6f756e74000000000000000000000000000000006020830152604082019050919050565b60006116d960058361197e565b91507f57686974650000000000000000000000000000000000000000000000000000006000830152600582019050919050565b60a0820160008201516117226000850182611774565b5060208201516117356020850182611792565b5060408201516117486040850182611548565b50606082015161175b6060850182611548565b50608082015161176e6080850182611774565b50505050565b61177d81611a77565b82525050565b61178c81611a77565b82525050565b61179b81611a81565b82525050565b60006117ad8284611575565b915081905092915050565b60006117c382611626565b9150819050919050565b60006117d8826116cc565b9150819050919050565b60006060820190506117f76000830186611557565b6118046020830185611783565b6118116040830184611783565b949350505050565b600060208201905061182e6000830184611566565b92915050565b6000602082019050818103600083015261184d816115a6565b9050919050565b6000602082019050818103600083015261186d816115e6565b9050919050565b6000602082019050818103600083015261188d81611666565b9050919050565b600060a0820190506118a9600083018461170c565b92915050565b60006020820190506118c46000830184611783565b92915050565b60006060820190506118df6000830186611783565b6118ec6020830185611557565b6118f96040830184611783565b949350505050565b6000604051905081810181811067ffffffffffffffff8211171561192857611927611b48565b5b8060405250919050565b600067ffffffffffffffff82111561194d5761194c611b48565b5b601f19601f8301169050602081019050919050565b600081519050919050565b600082825260208201905092915050565b600081905092915050565b600061199482611a77565b915061199f83611a77565b9250827fffffffffffffffffffffffffffffffffffffffffffffffffffffffffffffffff038211156119d4576119d3611b19565b5b828201905092915050565b60006119ea82611a77565b91506119f583611a77565b9250817fffffffffffffffffffffffffffffffffffffffffffffffffffffffffffffffff0483118215151615611a2e57611a2d611b19565b5b828202905092915050565b6000611a4482611a57565b9050919050565b60008115159050919050565b600073ffffffffffffffffffffffffffffffffffffffff82169050919050565b6000819050919050565b600060ff82169050919050565b82818337600083830152505050565b60005b83811015611abb578082015181840152602081019050611aa0565b83811115611aca576000848401525b50505050565b6000611adb82611a77565b91507fffffffffffffffffffffffffffffffffffffffffffffffffffffffffffffffff821415611b0e57611b0d611b19565b5b600182019050919050565b7f4e487b7100000000000000000000000000000000000000000000000000000000600052601160045260246000fd5b7f4e487b7100000000000000000000000000000000000000000000000000000000600052604160045260246000fd5b611b8081611a39565b8114611b8b57600080fd5b50565b611b9781611a4b565b8114611ba257600080fd5b50565b611bae81611a77565b8114611bb957600080fd5b5056fea264697066735822122049918e5c372b618756dfc81ef69534bb1b6a90bf08289e57897555f3540c65c664736f6c63430008000033",
  "linkReferences": {},
  "deployedLinkReferences": {}
}